:1000000002022D4144432050555348204255545438
:100010004F4E530020202020202020202020202070
:0500200020202020005B
:10002500C000788500D8FDD00022C000C001C00303
:100035007B3279C878D0D8FED9FADBF6DAF2D0036C
:10004500D001D00022C000C00179287868D8FED937
:10005500FADAF6D001D00022D294120025C29422F9
:10006500A2E79283A2E69282A2E59281A2E492801F
:1000750012005D120025A2E39283A2E29282A2E120
:100085009281A2E0928012005D22D293020065C2A5
:1000950093020065C294C0027A2812004AD0027405
:1000A500331200947433120094743212009474283D
:1000B500120094740C1200947401120094C0027A18
:1000C5000212004AD00222E493600612008FA38038
:1000D500F62244404480020094C0E0E8C4540F4432
:1000E5003012008FE8540F443012008FD0E022C048
:1000F500E0E8C4540F443012010AE8540F443012AA
:0D010500010AD0E0223099FDC299F599223F
:1001120075AC0075AD0075B30075B40075B10075AE
:10012200B200438E1043878075985253C4DF5389BF
:100132000F438920758DF7D28EC28C438E08538966
:10014200F043890143B38053B47F75F60043F6014F
:1001520043E10122C28CC28D758CBF758A28D28C74
:10016200308DFD22120156DAFB2253E8F043E800FB
:10017200C2EFD2EE30EFFDD207D206D205D204D2C0
:1001820003D202D201D200C3E5C394F04003C207F6
:1001920022C3E5C394D04003C20622C3E5C394B090
:1001A2004003C20522C3E5C394904003C20422C3A4
:1001B200E5C394704003C20322C3E5C394504003D5
:1001C200C20222C3E5C394304003C20122C3E5C385
:1001D20094104003C2002222C0E07401141200D71E
:1001E200D0E07430A207340012008F7430A20634BB
:1001F2000012008F7430A205340012008F7430A2F6
:1002020004340012008F7430A203340012008F7481
:1002120030A202340012008F7430A20134001200A6
:100222008F7430A200340012008F2275817F120178
:1002320012120099C0E07401141200D9D0E0C083F8
:10024200C082C0E09000031200CCD0E0D082D08304
:10025200C0E07401141200D7D0E0C083C082C0E0B5
:100262009000141200CCD0E0D082D08312016C1224
:0A02720001DA7A3212016602026E10
:00000001FF
