:1000000002049B74656D70203D207878782E787896
:1000100078002020202020202020202020202020A8
:030020002020009D
:10002300C000788500D8FDD00022C000C001C00305
:100033007B3279C878D0D8FED9FADBF6DAF2D0036E
:10004300D001D00022C000C00179287868D8FED939
:10005300FADAF6D001D00022D294120023C29422FD
:10006300A2E79283A2E69282A2E59281A2E4928021
:1000730012005B120023A2E39283A2E29282A2E126
:100083009281A2E0928012005B22D293020063C2AB
:1000930093020063C294C0027A28120048D002740B
:1000A3003312009274331200927432120092742845
:1000B300120092740C1200927401120092C0027A20
:1000C30002120048D00222E493600612008DA3803E
:1000D300F62244404480020092C0E0E8C4540F4436
:1000E3003012008DE8540F443012008DD0E022C04E
:1000F300E0E8C4540F4430120108E8540F443012AE
:0D0103000108D0E0223099FDC299F5992243
:10011000C0E0C0D0C000C001C002E4F53DF53EF52E
:100120003FF540F5417A20E534A2E779047831E6DD
:1001300033F608D9FA7905783DE636D4F608D9F9C8
:10014000DAE5D002D001D000D0D0D0E022C0E0C0AB
:10015000D0C000C001C002E4F53DF53EF53FF540DA
:10016000F5417A20E534A2E779047831E633F608E0
:10017000D9FA7905783DC0D0E6243320E70224D0AF
:1001800020E30224FDD0D033F608D9EADAD6D00233
:10019000D001D000D0D0D0E022C0E0C0D0C000C09C
:1001A00001C0027A207905C37841E613C0D030E758
:1001B0000224D030E30224FDF618D0D0D9EC790423
:1001C0007834E613F618D9FADADBD002D001D00081
:1001D000D0D0D0E022C0E0C0D0E5312535F531E502
:1001E000323536F532E5333537F533E5343538F524
:1001F00034D0D0D0E022C0E0C0D0C3E5319535F591
:1002000031E5329536F532E5339537F533E53495FA
:1002100038F534D0D0D0E022C0E0C0D0C3E531956D
:1002200035E5329536E5339537E53495389208D083
:10023000D0D0E022C0E0C0D0C3E5359531E5369599
:1002400032E5379533E53895349208D0D0D0E022A6
:10025000C0E0C0D0C208C3E53595317014E53695CD
:1002600032700EE53795337008E53895347002D258
:1002700008D0D0D0E022120250200803020234221B
:1002800012025020080302021822C0E0C0F0C0D0C1
:10029000C000C001C002C003E5318535F0A4F8A953
:1002A000F0E5328535F0A429F9E435F0FAE5318539
:1002B00036F0A429F9E5F03AFAE433FBE533853565
:1002C000F0A42AFAE5F03BFBE5328536F0A42AFAE1
:1002D000E5F03BFBE5318537F0A42AFAE5F03BFB7E
:1002E000E5348535F0A42BFBE5338536F0A42BFBF4
:1002F000E5328537F0A42BFBE5318538F0A42BFBE4
:100300008B348A3389328831D003D002D001D000B7
:10031000D0D0D0F0D0E022C0E0C0D0C000C001C03A
:1003200002C003C0047C20E4F8F9FAFBC3E53133D2
:10033000F531E53233F532E53333F533E53433F572
:1003400034E833F8E933F9EA33FAEB33FBC3E895E1
:1003500035E99536EA9537EB95384013E89535F849
:10036000E99536F9EA9537FAEB9538FB433101DC2C
:10037000BBD004D003D002D001D000D0D0D0E02236
:1003800075AC0075AD0075B30075B40075B100753E
:10039000B200438E1043878075985253C4DF53894F
:1003A0000F438920758DF7D28EC28C438E085389F6
:1003B000F043890143B38053B47F75F60043F601DF
:1003C00043E10122C28CC28D758CBF758A28D28C04
:1003D000308DFD221203C4DAFB2253E8F043E8001B
:1003E000C2EFD2EE30EFFDD207D206D205D204D250
:1003F00003D202D201D200C3E5C394F04003C20786
:1004000022C3E5C394D04003C20622C3E5C394B01F
:100410004003C20522C3E5C394904003C20422C333
:10042000E5C394704003C20322C3E5C39450400364
:10043000C20222C3E5C394304003C20122C3E5C314
:1004400094104003C2002222C0E07401141200D5AF
:10045000D0E07430A207340012008D7430A206344C
:100460000012008D7430A205340012008D7430A289
:1004700004340012008D7430A203340012008D7415
:1004800030A202340012008D7430A2013400120038
:100490008D7430A200340012008D2275817F12030A
:1004A000801200971203DA1204BA12052E7AFA1299
:1004B00003D47AFA1203D40204A453E8F043E80107
:1004C000C2EFD2EE30EFFDE5C3C4C0E0540FF9D067
:1004D000E054F045C2F88831893275330075340034
:1004E0007535B87536C975370075380012028A75CA
:1004F00035FF75360F753700753800120317120176
:100500001012057912050E12011012051E22753502
:10051000A675360075370075380012028A22853DAF
:1005200042853E43853F4485404585414622C0E0A3
:100530007401141200D7D0E0C083C082C0E09000E4
:10054000031200CAD0E0D082D083C0E07407141236
:1005500000D7D0E0C000A83F1200DCD000C0E0749B
:100560002E12008DD0E0C000A83E1200DCD000C0EA
:1005700000A83D1200DCD00022C0E074011412007B
:10058000D5D0E0C000A8401200DCD000C000A83FD9
:100590001200DCD000C000A83E1200DCD000C00079
:0805A000A83D1200DCD000228E
:00000001FF
