:1000000002049B74656D70203D207878782E787896
:1000100078002020202020202020202020202020A8
:030020002020009D
:10002300C000788500D8FDD00022C000C001C00305
:100033007B3279C878D0D8FED9FADBF6DAF2D0036E
:10004300D001D00022C000C00179287868D8FED939
:10005300FADAF6D001D00022D294120023C29422FD
:10006300A2E79283A2E69282A2E59281A2E4928021
:1000730012005B120023A2E39283A2E29282A2E126
:100083009281A2E0928012005B22D293020063C2AB
:1000930093020063C294C0027A28120048D002740B
:1000A3003312009274331200927432120092742845
:1000B300120092740C1200927401120092C0027A20
:1000C30002120048D00222E493600612008DA3803E
:1000D300F62244404480020092C0E0E8C4540F4436
:1000E3003012008DE8540F443012008DD0E022C04E
:1000F300E0E8C4540F4430120108E8540F443012AE
:0D0103000108D0E0223099FDC299F5992243
:10011000C0E0C0D0C000C001C002E4F546F547F51C
:1001200048F549F54A7A20E535A2E779047832E6C0
:1001300033F608D9FA79057846E636D4F608D9F9BF
:10014000DAE5D002D001D000D0D0D0E022C0E0C0AB
:10015000D0C000C001C002E4F546F547F548F549B6
:10016000F54A7A20E535A2E779047832E633F608D5
:10017000D9FA79057846C0D0E6243320E70224D0A6
:1001800020E30224FDD0D033F608D9EADAD6D00233
:10019000D001D000D0D0D0E022C0E0C0D0C000C09C
:1001A00001C0027A207905C3784AE613C0D030E74F
:1001B0000224D030E30224FDF618D0D0D9EC790423
:1001C0007835E613F618D9FADADBD002D001D00080
:1001D000D0D0D0E022C0E0C0D0E5322536F532E5FF
:1001E000333537F533E5343538F534E5353539F51C
:1001F00035D0D0D0E022C0E0C0D0C3E5329536F58E
:1002000032E5339537F533E5349538F534E53595F2
:1002100039F535D0D0D0E022C0E0C0D0C3E532956A
:1002200036E5339537E5349538E53595399208D07C
:10023000D0D0E022C0E0C0D0C3E5369532E5379596
:1002400033E5389534E53995359208D0D0D0E022A1
:10025000C0E0C0D0C208C3E53695327014E53795CA
:1002600033700EE53895347008E53995357002D253
:1002700008D0D0D0E022120250200803020234221B
:1002800012025020080302021822C0E0C0F0C0D0C1
:10029000C000C001C002C003E5328536F0A4F8A951
:1002A000F0E5338536F0A429F9E435F0FAE5328536
:1002B00037F0A429F9E5F03AFAE433FBE534853662
:1002C000F0A42AFAE5F03BFBE5338537F0A42AFADF
:1002D000E5F03BFBE5328538F0A42AFAE5F03BFB7C
:1002E000E5358536F0A42BFBE5348537F0A42BFBF0
:1002F000E5338538F0A42BFBE5328539F0A42BFBE0
:100300008B358A3489338832D003D002D001D000B3
:10031000D0D0D0F0D0E022C0E0C0D0C000C001C03A
:1003200002C003C0047C20E4F8F9FAFBC3E53233D1
:10033000F532E53333F533E53433F534E53533F56C
:1003400035E833F8E933F9EA33FAEB33FBC3E895E0
:1003500036E99537EA9538EB95394013E89536F844
:10036000E99537F9EA9538FAEB9539FB433201DC28
:10037000BBD004D003D002D001D000D0D0D0E02236
:1003800075AC0075AD0075B30075B40075B100753E
:10039000B200438E1043878075985253C4DF53894F
:1003A0000F438920758DF7D28EC28C438E085389F6
:1003B000F043890143B38053B47F75F60043F601DF
:1003C00043E10122C28CC28D758CBF758A28D28C04
:1003D000308DFD221203C4DAFB2253E8F043E8001B
:1003E000C2EFD2EE30EFFDD207D206D205D204D250
:1003F00003D202D201D200C3E5C394F04003C20786
:1004000022C3E5C394D04003C20622C3E5C394B01F
:100410004003C20522C3E5C394904003C20422C333
:10042000E5C394704003C20322C3E5C39450400364
:10043000C20222C3E5C394304003C20122C3E5C314
:1004400094104003C2002222C0E07401141200D5AF
:10045000D0E07430A207340012008D7430A206344C
:100460000012008D7430A205340012008D7430A289
:1004700004340012008D7430A203340012008D7415
:1004800030A202340012008D7430A2013400120038
:100490008D7430A200340012008D2275817F12030A
:1004A000801200977531007400F53EF53FF540F578
:1004B00041F542F53AF53BF53CF53DF53E1203DAE0
:1004C0001204E37A141203D4E531B4190CE4F531C3
:1004D00012054912058A0204E02401F5310204E004
:1004E0000204BD53E8F043E801C2EFD2EE30EFFD65
:1004F000E5C3C4C0E0540FF9D0E054F045C2F88819
:100500003289337534007535007536B87537C9755D
:10051000380075390012028A7536FF75370F753845
:100520000075390012031712011075363A7537003D
:100530007538007539001201D585323A85333B850F
:10054000343C85353D85363E2275323A753300752B
:1005500034007535007536197537007538007539F2
:10056000001203177536A675370075380075390007
:1005700012028A12011012057A2285464B85474CD9
:1005800085484D85494E854A4F22C0E074011412BA
:1005900000D7D0E0C083C082C0E09000031200CA40
:1005A000D0E0D082D083C0E07407141200D7D0E02E
:1005B000C000A8481200DCD000C0E0742E12008DEC
:1005C000D0E0C000A8471200DCD000C000A846124E
:1005D00000DCD00022C0E07401141200D5D0E0C0CD
:1005E00000A8491200DCD000C000A8481200DCD0EE
:1005F00000C000A8471200DCD000C000A8461200CE
:04060000DCD0002228
:00000001FF
